{
  "_format": "hh-sol-artifact-1",
  "contractName": "TimeBankLedger",
  "sourceName": "contracts/TimeBankLedger.sol",
  "abi": [
    {
      "anonymous": false,
      "inputs": [
        {
          "indexed": true,
          "internalType": "address",
          "name": "provider",
          "type": "address"
        },
        {
          "indexed": true,
          "internalType": "address",
          "name": "receiver",
          "type": "address"
        },
        {
          "indexed": false,
          "internalType": "uint256",
          "name": "credits",
          "type": "uint256"
        },
        {
          "indexed": false,
          "internalType": "uint256",
          "name": "occupationCode",
          "type": "uint256"
        },
        {
          "indexed": false,
          "internalType": "uint256",
          "name": "timestamp",
          "type": "uint256"
        }
      ],
      "name": "TransactionRecorded",
      "type": "event"
    },
    {
      "inputs": [
        {
          "internalType": "address",
          "name": "",
          "type": "address"
        }
      ],
      "name": "balances",
      "outputs": [
        {
          "internalType": "int256",
          "name": "",
          "type": "int256"
        }
      ],
      "stateMutability": "view",
      "type": "function"
    },
    {
      "inputs": [
        {
          "internalType": "uint256",
          "name": "index",
          "type": "uint256"
        }
      ],
      "name": "getTransaction",
      "outputs": [
        {
          "components": [
            {
              "internalType": "address",
              "name": "provider",
              "type": "address"
            },
            {
              "internalType": "address",
              "name": "receiver",
              "type": "address"
            },
            {
              "internalType": "uint256",
              "name": "hoursWorked",
              "type": "uint256"
            },
            {
              "internalType": "uint256",
              "name": "credits",
              "type": "uint256"
            },
            {
              "internalType": "uint256",
              "name": "occupationCode",
              "type": "uint256"
            },
            {
              "internalType": "uint256",
              "name": "timestamp",
              "type": "uint256"
            }
          ],
          "internalType": "struct TimeBankLedger.Transaction",
          "name": "",
          "type": "tuple"
        }
      ],
      "stateMutability": "view",
      "type": "function"
    },
    {
      "inputs": [],
      "name": "getTransactionCount",
      "outputs": [
        {
          "internalType": "uint256",
          "name": "",
          "type": "uint256"
        }
      ],
      "stateMutability": "view",
      "type": "function"
    },
    {
      "inputs": [
        {
          "internalType": "address",
          "name": "provider",
          "type": "address"
        },
        {
          "internalType": "address",
          "name": "receiver",
          "type": "address"
        },
        {
          "internalType": "uint256",
          "name": "hoursWorked",
          "type": "uint256"
        },
        {
          "internalType": "uint256",
          "name": "credits",
          "type": "uint256"
        },
        {
          "internalType": "uint256",
          "name": "occupationCode",
          "type": "uint256"
        }
      ],
      "name": "recordTransaction",
      "outputs": [],
      "stateMutability": "nonpayable",
      "type": "function"
    },
    {
      "inputs": [
        {
          "internalType": "uint256",
          "name": "",
          "type": "uint256"
        }
      ],
      "name": "transactions",
      "outputs": [
        {
          "internalType": "address",
          "name": "provider",
          "type": "address"
        },
        {
          "internalType": "address",
          "name": "receiver",
          "type": "address"
        },
        {
          "internalType": "uint256",
          "name": "hoursWorked",
          "type": "uint256"
        },
        {
          "internalType": "uint256",
          "name": "credits",
          "type": "uint256"
        },
        {
          "internalType": "uint256",
          "name": "occupationCode",
          "type": "uint256"
        },
        {
          "internalType": "uint256",
          "name": "timestamp",
          "type": "uint256"
        }
      ],
      "stateMutability": "view",
      "type": "function"
    }
  ],
  "bytecode": "0x608060405234801561001057600080fd5b506109e6806100206000396000f3fe608060405234801561001057600080fd5b50600436106100575760003560e01c806308f0908f1461005c57806327e235e3146100785780632e7700f0146100a857806333ea3dc8146100c65780639ace38c2146100f6575b600080fd5b6100766004803603810190610071919061063d565b61012b565b005b610092600480360381019061008d91906106b8565b610381565b60405161009f91906106fe565b60405180910390f35b6100b0610399565b6040516100bd9190610728565b60405180910390f35b6100e060048036038101906100db9190610743565b6103a6565b6040516100ed9190610809565b60405180910390f35b610110600480360381019061010b9190610743565b6104b6565b60405161012296959493929190610833565b60405180910390f35b816000808773ffffffffffffffffffffffffffffffffffffffff1673ffffffffffffffffffffffffffffffffffffffff168152602001908152602001600020600082825461017991906108c3565b92505081905550816000808673ffffffffffffffffffffffffffffffffffffffff1673ffffffffffffffffffffffffffffffffffffffff16815260200190815260200160002060008282546101ce9190610907565b9250508190555060016040518060c001604052808773ffffffffffffffffffffffffffffffffffffffff1681526020018673ffffffffffffffffffffffffffffffffffffffff16815260200185815260200184815260200183815260200142815250908060018154018082558091505060019003906000526020600020906006020160009091909190915060008201518160000160006101000a81548173ffffffffffffffffffffffffffffffffffffffff021916908373ffffffffffffffffffffffffffffffffffffffff16021790555060208201518160010160006101000a81548173ffffffffffffffffffffffffffffffffffffffff021916908373ffffffffffffffffffffffffffffffffffffffff16021790555060408201518160020155606082015181600301556080820151816004015560a0820151816005015550508373ffffffffffffffffffffffffffffffffffffffff168573ffffffffffffffffffffffffffffffffffffffff167f6b99cf52c563ecff90f4c974e61d8b643c1bfb76de3ccd6139fba774ba98678d8484426040516103729392919061094a565b60405180910390a35050505050565b60006020528060005260406000206000915090505481565b6000600180549050905090565b6103ae610542565b600182815481106103c2576103c1610981565b5b90600052602060002090600602016040518060c00160405290816000820160009054906101000a900473ffffffffffffffffffffffffffffffffffffffff1673ffffffffffffffffffffffffffffffffffffffff1673ffffffffffffffffffffffffffffffffffffffff1681526020016001820160009054906101000a900473ffffffffffffffffffffffffffffffffffffffff1673ffffffffffffffffffffffffffffffffffffffff1673ffffffffffffffffffffffffffffffffffffffff1681526020016002820154815260200160038201548152602001600482015481526020016005820154815250509050919050565b600181815481106104c657600080fd5b90600052602060002090600602016000915090508060000160009054906101000a900473ffffffffffffffffffffffffffffffffffffffff16908060010160009054906101000a900473ffffffffffffffffffffffffffffffffffffffff16908060020154908060030154908060040154908060050154905086565b6040518060c00160405280600073ffffffffffffffffffffffffffffffffffffffff168152602001600073ffffffffffffffffffffffffffffffffffffffff168152602001600081526020016000815260200160008152602001600081525090565b600080fd5b600073ffffffffffffffffffffffffffffffffffffffff82169050919050565b60006105d4826105a9565b9050919050565b6105e4816105c9565b81146105ef57600080fd5b50565b600081359050610601816105db565b92915050565b6000819050919050565b61061a81610607565b811461062557600080fd5b50565b60008135905061063781610611565b92915050565b600080600080600060a08688031215610659576106586105a4565b5b6000610667888289016105f2565b9550506020610678888289016105f2565b945050604061068988828901610628565b935050606061069a88828901610628565b92505060806106ab88828901610628565b9150509295509295909350565b6000602082840312156106ce576106cd6105a4565b5b60006106dc848285016105f2565b91505092915050565b6000819050919050565b6106f8816106e5565b82525050565b600060208201905061071360008301846106ef565b92915050565b61072281610607565b82525050565b600060208201905061073d6000830184610719565b92915050565b600060208284031215610759576107586105a4565b5b600061076784828501610628565b91505092915050565b610779816105c9565b82525050565b61078881610607565b82525050565b60c0820160008201516107a46000850182610770565b5060208201516107b76020850182610770565b5060408201516107ca604085018261077f565b5060608201516107dd606085018261077f565b5060808201516107f0608085018261077f565b5060a082015161080360a085018261077f565b50505050565b600060c08201905061081e600083018461078e565b92915050565b61082d816105c9565b82525050565b600060c0820190506108486000830189610824565b6108556020830188610824565b6108626040830187610719565b61086f6060830186610719565b61087c6080830185610719565b61088960a0830184610719565b979650505050505050565b7f4e487b7100000000000000000000000000000000000000000000000000000000600052601160045260246000fd5b60006108ce826106e5565b91506108d9836106e5565b92508282019050828112156000831216838212600084121516171561090157610900610894565b5b92915050565b6000610912826106e5565b915061091d836106e5565b925082820390508181126000841216828213600085121516171561094457610943610894565b5b92915050565b600060608201905061095f6000830186610719565b61096c6020830185610719565b6109796040830184610719565b949350505050565b7f4e487b7100000000000000000000000000000000000000000000000000000000600052603260045260246000fdfea264697066735822122017b8704e6d9ab6f7a9a76f7ee4eb4b7dc99f15173c1ab368b6dfad6d2100584d64736f6c63430008140033",
  "linkReferences": {},
  "deployedLinkReferences": {}
}