{
  "_format": "hh-sol-artifact-1",
  "contractName": "TimeBankLedger",
  "sourceName": "contracts/TimeBankLedger.sol",
  "abi": [
    {
      "anonymous": false,
      "inputs": [
        {
          "indexed": true,
          "internalType": "address",
          "name": "provider",
          "type": "address"
        },
        {
          "indexed": true,
          "internalType": "address",
          "name": "receiver",
          "type": "address"
        },
        {
          "indexed": false,
          "internalType": "uint256",
          "name": "credits",
          "type": "uint256"
        },
        {
          "indexed": false,
          "internalType": "uint256",
          "name": "occupationCode",
          "type": "uint256"
        },
        {
          "indexed": false,
          "internalType": "uint256",
          "name": "timestamp",
          "type": "uint256"
        },
        {
          "indexed": false,
          "internalType": "string",
          "name": "creditsDisplay",
          "type": "string"
        },
        {
          "indexed": false,
          "internalType": "string",
          "name": "occupationCodeDisplay",
          "type": "string"
        }
      ],
      "name": "TransactionRecorded",
      "type": "event"
    },
    {
      "inputs": [
        {
          "internalType": "address",
          "name": "",
          "type": "address"
        }
      ],
      "name": "balances",
      "outputs": [
        {
          "internalType": "int256",
          "name": "",
          "type": "int256"
        }
      ],
      "stateMutability": "view",
      "type": "function"
    },
    {
      "inputs": [
        {
          "internalType": "uint256",
          "name": "index",
          "type": "uint256"
        }
      ],
      "name": "getTransaction",
      "outputs": [
        {
          "components": [
            {
              "internalType": "address",
              "name": "provider",
              "type": "address"
            },
            {
              "internalType": "address",
              "name": "receiver",
              "type": "address"
            },
            {
              "internalType": "uint256",
              "name": "hoursWorked",
              "type": "uint256"
            },
            {
              "internalType": "uint256",
              "name": "credits",
              "type": "uint256"
            },
            {
              "internalType": "uint256",
              "name": "occupationCode",
              "type": "uint256"
            },
            {
              "internalType": "uint256",
              "name": "timestamp",
              "type": "uint256"
            }
          ],
          "internalType": "struct TimeBankLedger.Transaction",
          "name": "",
          "type": "tuple"
        }
      ],
      "stateMutability": "view",
      "type": "function"
    },
    {
      "inputs": [],
      "name": "getTransactionCount",
      "outputs": [
        {
          "internalType": "uint256",
          "name": "",
          "type": "uint256"
        }
      ],
      "stateMutability": "view",
      "type": "function"
    },
    {
      "inputs": [
        {
          "internalType": "address",
          "name": "provider",
          "type": "address"
        },
        {
          "internalType": "address",
          "name": "receiver",
          "type": "address"
        },
        {
          "internalType": "uint256",
          "name": "hoursWorked",
          "type": "uint256"
        },
        {
          "internalType": "uint256",
          "name": "credits",
          "type": "uint256"
        },
        {
          "internalType": "uint256",
          "name": "occupationCode",
          "type": "uint256"
        },
        {
          "internalType": "string",
          "name": "creditsDisplay",
          "type": "string"
        },
        {
          "internalType": "string",
          "name": "occupationCodeDisplay",
          "type": "string"
        }
      ],
      "name": "recordTransaction",
      "outputs": [],
      "stateMutability": "nonpayable",
      "type": "function"
    },
    {
      "inputs": [
        {
          "internalType": "uint256",
          "name": "",
          "type": "uint256"
        }
      ],
      "name": "transactions",
      "outputs": [
        {
          "internalType": "address",
          "name": "provider",
          "type": "address"
        },
        {
          "internalType": "address",
          "name": "receiver",
          "type": "address"
        },
        {
          "internalType": "uint256",
          "name": "hoursWorked",
          "type": "uint256"
        },
        {
          "internalType": "uint256",
          "name": "credits",
          "type": "uint256"
        },
        {
          "internalType": "uint256",
          "name": "occupationCode",
          "type": "uint256"
        },
        {
          "internalType": "uint256",
          "name": "timestamp",
          "type": "uint256"
        }
      ],
      "stateMutability": "view",
      "type": "function"
    }
  ],
  "bytecode": "0x608060405234801561001057600080fd5b50610c49806100206000396000f3fe608060405234801561001057600080fd5b50600436106100575760003560e01c806327e235e31461005c5780632e7700f01461008c57806333ea3dc8146100aa5780639ace38c2146100da578063ae8143aa1461010f575b600080fd5b6100766004803603810190610071919061061c565b61012b565b6040516100839190610662565b60405180910390f35b610094610143565b6040516100a19190610696565b60405180910390f35b6100c460048036038101906100bf91906106dd565b610150565b6040516100d191906107a3565b60405180910390f35b6100f460048036038101906100ef91906106dd565b610260565b604051610106969594939291906107cd565b60405180910390f35b61012960048036038101906101249190610974565b6102ec565b005b60006020528060005260406000206000915090505481565b6000600180549050905090565b610158610548565b6001828154811061016c5761016b610a4e565b5b90600052602060002090600602016040518060c00160405290816000820160009054906101000a900473ffffffffffffffffffffffffffffffffffffffff1673ffffffffffffffffffffffffffffffffffffffff1673ffffffffffffffffffffffffffffffffffffffff1681526020016001820160009054906101000a900473ffffffffffffffffffffffffffffffffffffffff1673ffffffffffffffffffffffffffffffffffffffff1673ffffffffffffffffffffffffffffffffffffffff1681526020016002820154815260200160038201548152602001600482015481526020016005820154815250509050919050565b6001818154811061027057600080fd5b90600052602060002090600602016000915090508060000160009054906101000a900473ffffffffffffffffffffffffffffffffffffffff16908060010160009054906101000a900473ffffffffffffffffffffffffffffffffffffffff16908060020154908060030154908060040154908060050154905086565b836000808973ffffffffffffffffffffffffffffffffffffffff1673ffffffffffffffffffffffffffffffffffffffff168152602001908152602001600020600082825461033a9190610aac565b92505081905550836000808873ffffffffffffffffffffffffffffffffffffffff1673ffffffffffffffffffffffffffffffffffffffff168152602001908152602001600020600082825461038f9190610af0565b9250508190555060016040518060c001604052808973ffffffffffffffffffffffffffffffffffffffff1681526020018873ffffffffffffffffffffffffffffffffffffffff16815260200187815260200186815260200185815260200142815250908060018154018082558091505060019003906000526020600020906006020160009091909190915060008201518160000160006101000a81548173ffffffffffffffffffffffffffffffffffffffff021916908373ffffffffffffffffffffffffffffffffffffffff16021790555060208201518160010160006101000a81548173ffffffffffffffffffffffffffffffffffffffff021916908373ffffffffffffffffffffffffffffffffffffffff16021790555060408201518160020155606082015181600301556080820151816004015560a0820151816005015550508573ffffffffffffffffffffffffffffffffffffffff168773ffffffffffffffffffffffffffffffffffffffff167f165a5d8366a1d8302991326461f11b5fce4f0fe36434d5a6ad687c94bc34babd8686428787604051610537959493929190610bb2565b60405180910390a350505050505050565b6040518060c00160405280600073ffffffffffffffffffffffffffffffffffffffff168152602001600073ffffffffffffffffffffffffffffffffffffffff168152602001600081526020016000815260200160008152602001600081525090565b6000604051905090565b600080fd5b600080fd5b600073ffffffffffffffffffffffffffffffffffffffff82169050919050565b60006105e9826105be565b9050919050565b6105f9816105de565b811461060457600080fd5b50565b600081359050610616816105f0565b92915050565b600060208284031215610632576106316105b4565b5b600061064084828501610607565b91505092915050565b6000819050919050565b61065c81610649565b82525050565b60006020820190506106776000830184610653565b92915050565b6000819050919050565b6106908161067d565b82525050565b60006020820190506106ab6000830184610687565b92915050565b6106ba8161067d565b81146106c557600080fd5b50565b6000813590506106d7816106b1565b92915050565b6000602082840312156106f3576106f26105b4565b5b6000610701848285016106c8565b91505092915050565b610713816105de565b82525050565b6107228161067d565b82525050565b60c08201600082015161073e600085018261070a565b506020820151610751602085018261070a565b5060408201516107646040850182610719565b5060608201516107776060850182610719565b50608082015161078a6080850182610719565b5060a082015161079d60a0850182610719565b50505050565b600060c0820190506107b86000830184610728565b92915050565b6107c7816105de565b82525050565b600060c0820190506107e260008301896107be565b6107ef60208301886107be565b6107fc6040830187610687565b6108096060830186610687565b6108166080830185610687565b61082360a0830184610687565b979650505050505050565b600080fd5b600080fd5b6000601f19601f8301169050919050565b7f4e487b7100000000000000000000000000000000000000000000000000000000600052604160045260246000fd5b61088182610838565b810181811067ffffffffffffffff821117156108a05761089f610849565b5b80604052505050565b60006108b36105aa565b90506108bf8282610878565b919050565b600067ffffffffffffffff8211156108df576108de610849565b5b6108e882610838565b9050602081019050919050565b82818337600083830152505050565b6000610917610912846108c4565b6108a9565b90508281526020810184848401111561093357610932610833565b5b61093e8482856108f5565b509392505050565b600082601f83011261095b5761095a61082e565b5b813561096b848260208601610904565b91505092915050565b600080600080600080600060e0888a031215610993576109926105b4565b5b60006109a18a828b01610607565b97505060206109b28a828b01610607565b96505060406109c38a828b016106c8565b95505060606109d48a828b016106c8565b94505060806109e58a828b016106c8565b93505060a088013567ffffffffffffffff811115610a0657610a056105b9565b5b610a128a828b01610946565b92505060c088013567ffffffffffffffff811115610a3357610a326105b9565b5b610a3f8a828b01610946565b91505092959891949750929550565b7f4e487b7100000000000000000000000000000000000000000000000000000000600052603260045260246000fd5b7f4e487b7100000000000000000000000000000000000000000000000000000000600052601160045260246000fd5b6000610ab782610649565b9150610ac283610649565b925082820190508281121560008312168382126000841215161715610aea57610ae9610a7d565b5b92915050565b6000610afb82610649565b9150610b0683610649565b9250828203905081811260008412168282136000851215161715610b2d57610b2c610a7d565b5b92915050565b600081519050919050565b600082825260208201905092915050565b60005b83811015610b6d578082015181840152602081019050610b52565b60008484015250505050565b6000610b8482610b33565b610b8e8185610b3e565b9350610b9e818560208601610b4f565b610ba781610838565b840191505092915050565b600060a082019050610bc76000830188610687565b610bd46020830187610687565b610be16040830186610687565b8181036060830152610bf38185610b79565b90508181036080830152610c078184610b79565b9050969550505050505056fea2646970667358221220d3440be636ca9820e988a35ca1dd41e454479ad116ca6f5c276e3ffef02448d164736f6c63430008140033",
  "linkReferences": {},
  "deployedLinkReferences": {}
}