{"contracts/TimeBankLedger.sol":{"TimeBankLedger":{"abi":[{"anonymous":false,"inputs":[{"indexed":true,"internalType":"address","name":"provider","type":"address"},{"indexed":true,"internalType":"address","name":"receiver","type":"address"},{"indexed":false,"internalType":"uint256","name":"credits","type":"uint256"},{"indexed":false,"internalType":"uint256","name":"occupationCode","type":"uint256"},{"indexed":false,"internalType":"uint256","name":"timestamp","type":"uint256"},{"indexed":false,"internalType":"string","name":"creditsDisplay","type":"string"},{"indexed":false,"internalType":"string","name":"occupationCodeDisplay","type":"string"}],"name":"TransactionRecorded","type":"event"},{"inputs":[{"internalType":"address","name":"","type":"address"}],"name":"balances","outputs":[{"internalType":"int256","name":"","type":"int256"}],"stateMutability":"view","type":"function"},{"inputs":[{"internalType":"uint256","name":"index","type":"uint256"}],"name":"getTransaction","outputs":[{"components":[{"internalType":"address","name":"provider","type":"address"},{"internalType":"address","name":"receiver","type":"address"},{"internalType":"uint256","name":"hoursWorked","type":"uint256"},{"internalType":"uint256","name":"credits","type":"uint256"},{"internalType":"uint256","name":"occupationCode","type":"uint256"},{"internalType":"uint256","name":"timestamp","type":"uint256"}],"internalType":"struct TimeBankLedger.Transaction","name":"","type":"tuple"}],"stateMutability":"view","type":"function"},{"inputs":[],"name":"getTransactionCount","outputs":[{"internalType":"uint256","name":"","type":"uint256"}],"stateMutability":"view","type":"function"},{"inputs":[{"internalType":"address","name":"provider","type":"address"},{"internalType":"address","name":"receiver","type":"address"},{"internalType":"uint256","name":"hoursWorked","type":"uint256"},{"internalType":"uint256","name":"credits","type":"uint256"},{"internalType":"uint256","name":"occupationCode","type":"uint256"},{"internalType":"string","name":"creditsDisplay","type":"string"},{"internalType":"string","name":"occupationCodeDisplay","type":"string"}],"name":"recordTransaction","outputs":[],"stateMutability":"nonpayable","type":"function"},{"inputs":[{"internalType":"uint256","name":"","type":"uint256"}],"name":"transactions","outputs":[{"internalType":"address","name":"provider","type":"address"},{"internalType":"address","name":"receiver","type":"address"},{"internalType":"uint256","name":"hoursWorked","type":"uint256"},{"internalType":"uint256","name":"credits","type":"uint256"},{"internalType":"uint256","name":"occupationCode","type":"uint256"},{"internalType":"uint256","name":"timestamp","type":"uint256"}],"stateMutability":"view","type":"function"}],"evm":{"bytecode":{"linkReferences":{},"object":"608060405234801561001057600080fd5b50610c49806100206000396000f3fe608060405234801561001057600080fd5b50600436106100575760003560e01c806327e235e31461005c5780632e7700f01461008c57806333ea3dc8146100aa5780639ace38c2146100da578063ae8143aa1461010f575b600080fd5b6100766004803603810190610071919061061c565b61012b565b6040516100839190610662565b60405180910390f35b610094610143565b6040516100a19190610696565b60405180910390f35b6100c460048036038101906100bf91906106dd565b610150565b6040516100d191906107a3565b60405180910390f35b6100f460048036038101906100ef91906106dd565b610260565b604051610106969594939291906107cd565b60405180910390f35b61012960048036038101906101249190610974565b6102ec565b005b60006020528060005260406000206000915090505481565b6000600180549050905090565b610158610548565b6001828154811061016c5761016b610a4e565b5b90600052602060002090600602016040518060c00160405290816000820160009054906101000a900473ffffffffffffffffffffffffffffffffffffffff1673ffffffffffffffffffffffffffffffffffffffff1673ffffffffffffffffffffffffffffffffffffffff1681526020016001820160009054906101000a900473ffffffffffffffffffffffffffffffffffffffff1673ffffffffffffffffffffffffffffffffffffffff1673ffffffffffffffffffffffffffffffffffffffff1681526020016002820154815260200160038201548152602001600482015481526020016005820154815250509050919050565b6001818154811061027057600080fd5b90600052602060002090600602016000915090508060000160009054906101000a900473ffffffffffffffffffffffffffffffffffffffff16908060010160009054906101000a900473ffffffffffffffffffffffffffffffffffffffff16908060020154908060030154908060040154908060050154905086565b836000808973ffffffffffffffffffffffffffffffffffffffff1673ffffffffffffffffffffffffffffffffffffffff168152602001908152602001600020600082825461033a9190610aac565b92505081905550836000808873ffffffffffffffffffffffffffffffffffffffff1673ffffffffffffffffffffffffffffffffffffffff168152602001908152602001600020600082825461038f9190610af0565b9250508190555060016040518060c001604052808973ffffffffffffffffffffffffffffffffffffffff1681526020018873ffffffffffffffffffffffffffffffffffffffff16815260200187815260200186815260200185815260200142815250908060018154018082558091505060019003906000526020600020906006020160009091909190915060008201518160000160006101000a81548173ffffffffffffffffffffffffffffffffffffffff021916908373ffffffffffffffffffffffffffffffffffffffff16021790555060208201518160010160006101000a81548173ffffffffffffffffffffffffffffffffffffffff021916908373ffffffffffffffffffffffffffffffffffffffff16021790555060408201518160020155606082015181600301556080820151816004015560a0820151816005015550508573ffffffffffffffffffffffffffffffffffffffff168773ffffffffffffffffffffffffffffffffffffffff167f165a5d8366a1d8302991326461f11b5fce4f0fe36434d5a6ad687c94bc34babd8686428787604051610537959493929190610bb2565b60405180910390a350505050505050565b6040518060c00160405280600073ffffffffffffffffffffffffffffffffffffffff168152602001600073ffffffffffffffffffffffffffffffffffffffff168152602001600081526020016000815260200160008152602001600081525090565b6000604051905090565b600080fd5b600080fd5b600073ffffffffffffffffffffffffffffffffffffffff82169050919050565b60006105e9826105be565b9050919050565b6105f9816105de565b811461060457600080fd5b50565b600081359050610616816105f0565b92915050565b600060208284031215610632576106316105b4565b5b600061064084828501610607565b91505092915050565b6000819050919050565b61065c81610649565b82525050565b60006020820190506106776000830184610653565b92915050565b6000819050919050565b6106908161067d565b82525050565b60006020820190506106ab6000830184610687565b92915050565b6106ba8161067d565b81146106c557600080fd5b50565b6000813590506106d7816106b1565b92915050565b6000602082840312156106f3576106f26105b4565b5b6000610701848285016106c8565b91505092915050565b610713816105de565b82525050565b6107228161067d565b82525050565b60c08201600082015161073e600085018261070a565b506020820151610751602085018261070a565b5060408201516107646040850182610719565b5060608201516107776060850182610719565b50608082015161078a6080850182610719565b5060a082015161079d60a0850182610719565b50505050565b600060c0820190506107b86000830184610728565b92915050565b6107c7816105de565b82525050565b600060c0820190506107e260008301896107be565b6107ef60208301886107be565b6107fc6040830187610687565b6108096060830186610687565b6108166080830185610687565b61082360a0830184610687565b979650505050505050565b600080fd5b600080fd5b6000601f19601f8301169050919050565b7f4e487b7100000000000000000000000000000000000000000000000000000000600052604160045260246000fd5b61088182610838565b810181811067ffffffffffffffff821117156108a05761089f610849565b5b80604052505050565b60006108b36105aa565b90506108bf8282610878565b919050565b600067ffffffffffffffff8211156108df576108de610849565b5b6108e882610838565b9050602081019050919050565b82818337600083830152505050565b6000610917610912846108c4565b6108a9565b90508281526020810184848401111561093357610932610833565b5b61093e8482856108f5565b509392505050565b600082601f83011261095b5761095a61082e565b5b813561096b848260208601610904565b91505092915050565b600080600080600080600060e0888a031215610993576109926105b4565b5b60006109a18a828b01610607565b97505060206109b28a828b01610607565b96505060406109c38a828b016106c8565b95505060606109d48a828b016106c8565b94505060806109e58a828b016106c8565b93505060a088013567ffffffffffffffff811115610a0657610a056105b9565b5b610a128a828b01610946565b92505060c088013567ffffffffffffffff811115610a3357610a326105b9565b5b610a3f8a828b01610946565b91505092959891949750929550565b7f4e487b7100000000000000000000000000000000000000000000000000000000600052603260045260246000fd5b7f4e487b7100000000000000000000000000000000000000000000000000000000600052601160045260246000fd5b6000610ab782610649565b9150610ac283610649565b925082820190508281121560008312168382126000841215161715610aea57610ae9610a7d565b5b92915050565b6000610afb82610649565b9150610b0683610649565b9250828203905081811260008412168282136000851215161715610b2d57610b2c610a7d565b5b92915050565b600081519050919050565b600082825260208201905092915050565b60005b83811015610b6d578082015181840152602081019050610b52565b60008484015250505050565b6000610b8482610b33565b610b8e8185610b3e565b9350610b9e818560208601610b4f565b610ba781610838565b840191505092915050565b600060a082019050610bc76000830188610687565b610bd46020830187610687565b610be16040830186610687565b8181036060830152610bf38185610b79565b90508181036080830152610c078184610b79565b9050969550505050505056fea2646970667358221220d3440be636ca9820e988a35ca1dd41e454479ad116ca6f5c276e3ffef02448d164736f6c63430008140033","opcodes":"PUSH1 0x80 PUSH1 0x40 MSTORE CALLVALUE DUP1 ISZERO PUSH2 0x10 JUMPI PUSH1 0x0 DUP1 REVERT JUMPDEST POP PUSH2 0xC49 DUP1 PUSH2 0x20 PUSH1 0x0 CODECOPY PUSH1 0x0 RETURN INVALID PUSH1 0x80 PUSH1 0x40 MSTORE CALLVALUE DUP1 ISZERO PUSH2 0x10 JUMPI PUSH1 0x0 DUP1 REVERT JUMPDEST POP PUSH1 0x4 CALLDATASIZE LT PUSH2 0x57 JUMPI PUSH1 0x0 CALLDATALOAD PUSH1 0xE0 SHR DUP1 PUSH4 0x27E235E3 EQ PUSH2 0x5C JUMPI DUP1 PUSH4 0x2E7700F0 EQ PUSH2 0x8C JUMPI DUP1 PUSH4 0x33EA3DC8 EQ PUSH2 0xAA JUMPI DUP1 PUSH4 0x9ACE38C2 EQ PUSH2 0xDA JUMPI DUP1 PUSH4 0xAE8143AA EQ PUSH2 0x10F JUMPI JUMPDEST PUSH1 0x0 DUP1 REVERT JUMPDEST PUSH2 0x76 PUSH1 0x4 DUP1 CALLDATASIZE SUB DUP2 ADD SWAP1 PUSH2 0x71 SWAP2 SWAP1 PUSH2 0x61C JUMP JUMPDEST PUSH2 0x12B JUMP JUMPDEST PUSH1 0x40 MLOAD PUSH2 0x83 SWAP2 SWAP1 PUSH2 0x662 JUMP JUMPDEST PUSH1 0x40 MLOAD DUP1 SWAP2 SUB SWAP1 RETURN JUMPDEST PUSH2 0x94 PUSH2 0x143 JUMP JUMPDEST PUSH1 0x40 MLOAD PUSH2 0xA1 SWAP2 SWAP1 PUSH2 0x696 JUMP JUMPDEST PUSH1 0x40 MLOAD DUP1 SWAP2 SUB SWAP1 RETURN JUMPDEST PUSH2 0xC4 PUSH1 0x4 DUP1 CALLDATASIZE SUB DUP2 ADD SWAP1 PUSH2 0xBF SWAP2 SWAP1 PUSH2 0x6DD JUMP JUMPDEST PUSH2 0x150 JUMP JUMPDEST PUSH1 0x40 MLOAD PUSH2 0xD1 SWAP2 SWAP1 PUSH2 0x7A3 JUMP JUMPDEST PUSH1 0x40 MLOAD DUP1 SWAP2 SUB SWAP1 RETURN JUMPDEST PUSH2 0xF4 PUSH1 0x4 DUP1 CALLDATASIZE SUB DUP2 ADD SWAP1 PUSH2 0xEF SWAP2 SWAP1 PUSH2 0x6DD JUMP JUMPDEST PUSH2 0x260 JUMP JUMPDEST PUSH1 0x40 MLOAD PUSH2 0x106 SWAP7 SWAP6 SWAP5 SWAP4 SWAP3 SWAP2 SWAP1 PUSH2 0x7CD JUMP JUMPDEST PUSH1 0x40 MLOAD DUP1 SWAP2 SUB SWAP1 RETURN JUMPDEST PUSH2 0x129 PUSH1 0x4 DUP1 CALLDATASIZE SUB DUP2 ADD SWAP1 PUSH2 0x124 SWAP2 SWAP1 PUSH2 0x974 JUMP JUMPDEST PUSH2 0x2EC JUMP JUMPDEST STOP JUMPDEST PUSH1 0x0 PUSH1 0x20 MSTORE DUP1 PUSH1 0x0 MSTORE PUSH1 0x40 PUSH1 0x0 KECCAK256 PUSH1 0x0 SWAP2 POP SWAP1 POP SLOAD DUP2 JUMP JUMPDEST PUSH1 0x0 PUSH1 0x1 DUP1 SLOAD SWAP1 POP SWAP1 POP SWAP1 JUMP JUMPDEST PUSH2 0x158 PUSH2 0x548 JUMP JUMPDEST PUSH1 0x1 DUP3 DUP2 SLOAD DUP2 LT PUSH2 0x16C JUMPI PUSH2 0x16B PUSH2 0xA4E JUMP JUMPDEST JUMPDEST SWAP1 PUSH1 0x0 MSTORE PUSH1 0x20 PUSH1 0x0 KECCAK256 SWAP1 PUSH1 0x6 MUL ADD PUSH1 0x40 MLOAD DUP1 PUSH1 0xC0 ADD PUSH1 0x40 MSTORE SWAP1 DUP2 PUSH1 0x0 DUP3 ADD PUSH1 0x0 SWAP1 SLOAD SWAP1 PUSH2 0x100 EXP SWAP1 DIV PUSH20 0xFFFFFFFFFFFFFFFFFFFFFFFFFFFFFFFFFFFFFFFF AND PUSH20 0xFFFFFFFFFFFFFFFFFFFFFFFFFFFFFFFFFFFFFFFF AND PUSH20 0xFFFFFFFFFFFFFFFFFFFFFFFFFFFFFFFFFFFFFFFF AND DUP2 MSTORE PUSH1 0x20 ADD PUSH1 0x1 DUP3 ADD PUSH1 0x0 SWAP1 SLOAD SWAP1 PUSH2 0x100 EXP SWAP1 DIV PUSH20 0xFFFFFFFFFFFFFFFFFFFFFFFFFFFFFFFFFFFFFFFF AND PUSH20 0xFFFFFFFFFFFFFFFFFFFFFFFFFFFFFFFFFFFFFFFF AND PUSH20 0xFFFFFFFFFFFFFFFFFFFFFFFFFFFFFFFFFFFFFFFF AND DUP2 MSTORE PUSH1 0x20 ADD PUSH1 0x2 DUP3 ADD SLOAD DUP2 MSTORE PUSH1 0x20 ADD PUSH1 0x3 DUP3 ADD SLOAD DUP2 MSTORE PUSH1 0x20 ADD PUSH1 0x4 DUP3 ADD SLOAD DUP2 MSTORE PUSH1 0x20 ADD PUSH1 0x5 DUP3 ADD SLOAD DUP2 MSTORE POP POP SWAP1 POP SWAP2 SWAP1 POP JUMP JUMPDEST PUSH1 0x1 DUP2 DUP2 SLOAD DUP2 LT PUSH2 0x270 JUMPI PUSH1 0x0 DUP1 REVERT JUMPDEST SWAP1 PUSH1 0x0 MSTORE PUSH1 0x20 PUSH1 0x0 KECCAK256 SWAP1 PUSH1 0x6 MUL ADD PUSH1 0x0 SWAP2 POP SWAP1 POP DUP1 PUSH1 0x0 ADD PUSH1 0x0 SWAP1 SLOAD SWAP1 PUSH2 0x100 EXP SWAP1 DIV PUSH20 0xFFFFFFFFFFFFFFFFFFFFFFFFFFFFFFFFFFFFFFFF AND SWAP1 DUP1 PUSH1 0x1 ADD PUSH1 0x0 SWAP1 SLOAD SWAP1 PUSH2 0x100 EXP SWAP1 DIV PUSH20 0xFFFFFFFFFFFFFFFFFFFFFFFFFFFFFFFFFFFFFFFF AND SWAP1 DUP1 PUSH1 0x2 ADD SLOAD SWAP1 DUP1 PUSH1 0x3 ADD SLOAD SWAP1 DUP1 PUSH1 0x4 ADD SLOAD SWAP1 DUP1 PUSH1 0x5 ADD SLOAD SWAP1 POP DUP7 JUMP JUMPDEST DUP4 PUSH1 0x0 DUP1 DUP10 PUSH20 0xFFFFFFFFFFFFFFFFFFFFFFFFFFFFFFFFFFFFFFFF AND PUSH20 0xFFFFFFFFFFFFFFFFFFFFFFFFFFFFFFFFFFFFFFFF AND DUP2 MSTORE PUSH1 0x20 ADD SWAP1 DUP2 MSTORE PUSH1 0x20 ADD PUSH1 0x0 KECCAK256 PUSH1 0x0 DUP3 DUP3 SLOAD PUSH2 0x33A SWAP2 SWAP1 PUSH2 0xAAC JUMP JUMPDEST SWAP3 POP POP DUP2 SWAP1 SSTORE POP DUP4 PUSH1 0x0 DUP1 DUP9 PUSH20 0xFFFFFFFFFFFFFFFFFFFFFFFFFFFFFFFFFFFFFFFF AND PUSH20 0xFFFFFFFFFFFFFFFFFFFFFFFFFFFFFFFFFFFFFFFF AND DUP2 MSTORE PUSH1 0x20 ADD SWAP1 DUP2 MSTORE PUSH1 0x20 ADD PUSH1 0x0 KECCAK256 PUSH1 0x0 DUP3 DUP3 SLOAD PUSH2 0x38F SWAP2 SWAP1 PUSH2 0xAF0 JUMP JUMPDEST SWAP3 POP POP DUP2 SWAP1 SSTORE POP PUSH1 0x1 PUSH1 0x40 MLOAD DUP1 PUSH1 0xC0 ADD PUSH1 0x40 MSTORE DUP1 DUP10 PUSH20 0xFFFFFFFFFFFFFFFFFFFFFFFFFFFFFFFFFFFFFFFF AND DUP2 MSTORE PUSH1 0x20 ADD DUP9 PUSH20 0xFFFFFFFFFFFFFFFFFFFFFFFFFFFFFFFFFFFFFFFF AND DUP2 MSTORE PUSH1 0x20 ADD DUP8 DUP2 MSTORE PUSH1 0x20 ADD DUP7 DUP2 MSTORE PUSH1 0x20 ADD DUP6 DUP2 MSTORE PUSH1 0x20 ADD TIMESTAMP DUP2 MSTORE POP SWAP1 DUP1 PUSH1 0x1 DUP2 SLOAD ADD DUP1 DUP3 SSTORE DUP1 SWAP2 POP POP PUSH1 0x1 SWAP1 SUB SWAP1 PUSH1 0x0 MSTORE PUSH1 0x20 PUSH1 0x0 KECCAK256 SWAP1 PUSH1 0x6 MUL ADD PUSH1 0x0 SWAP1 SWAP2 SWAP1 SWAP2 SWAP1 SWAP2 POP PUSH1 0x0 DUP3 ADD MLOAD DUP2 PUSH1 0x0 ADD PUSH1 0x0 PUSH2 0x100 EXP DUP2 SLOAD DUP2 PUSH20 0xFFFFFFFFFFFFFFFFFFFFFFFFFFFFFFFFFFFFFFFF MUL NOT AND SWAP1 DUP4 PUSH20 0xFFFFFFFFFFFFFFFFFFFFFFFFFFFFFFFFFFFFFFFF AND MUL OR SWAP1 SSTORE POP PUSH1 0x20 DUP3 ADD MLOAD DUP2 PUSH1 0x1 ADD PUSH1 0x0 PUSH2 0x100 EXP DUP2 SLOAD DUP2 PUSH20 0xFFFFFFFFFFFFFFFFFFFFFFFFFFFFFFFFFFFFFFFF MUL NOT AND SWAP1 DUP4 PUSH20 0xFFFFFFFFFFFFFFFFFFFFFFFFFFFFFFFFFFFFFFFF AND MUL OR SWAP1 SSTORE POP PUSH1 0x40 DUP3 ADD MLOAD DUP2 PUSH1 0x2 ADD SSTORE PUSH1 0x60 DUP3 ADD MLOAD DUP2 PUSH1 0x3 ADD SSTORE PUSH1 0x80 DUP3 ADD MLOAD DUP2 PUSH1 0x4 ADD SSTORE PUSH1 0xA0 DUP3 ADD MLOAD DUP2 PUSH1 0x5 ADD SSTORE POP POP DUP6 PUSH20 0xFFFFFFFFFFFFFFFFFFFFFFFFFFFFFFFFFFFFFFFF AND DUP8 PUSH20 0xFFFFFFFFFFFFFFFFFFFFFFFFFFFFFFFFFFFFFFFF AND PUSH32 0x165A5D8366A1D8302991326461F11B5FCE4F0FE36434D5A6AD687C94BC34BABD DUP7 DUP7 TIMESTAMP DUP8 DUP8 PUSH1 0x40 MLOAD PUSH2 0x537 SWAP6 SWAP5 SWAP4 SWAP3 SWAP2 SWAP1 PUSH2 0xBB2 JUMP JUMPDEST PUSH1 0x40 MLOAD DUP1 SWAP2 SUB SWAP1 LOG3 POP POP POP POP POP POP POP JUMP JUMPDEST PUSH1 0x40 MLOAD DUP1 PUSH1 0xC0 ADD PUSH1 0x40 MSTORE DUP1 PUSH1 0x0 PUSH20 0xFFFFFFFFFFFFFFFFFFFFFFFFFFFFFFFFFFFFFFFF AND DUP2 MSTORE PUSH1 0x20 ADD PUSH1 0x0 PUSH20 0xFFFFFFFFFFFFFFFFFFFFFFFFFFFFFFFFFFFFFFFF AND DUP2 MSTORE PUSH1 0x20 ADD PUSH1 0x0 DUP2 MSTORE PUSH1 0x20 ADD PUSH1 0x0 DUP2 MSTORE PUSH1 0x20 ADD PUSH1 0x0 DUP2 MSTORE PUSH1 0x20 ADD PUSH1 0x0 DUP2 MSTORE POP SWAP1 JUMP JUMPDEST PUSH1 0x0 PUSH1 0x40 MLOAD SWAP1 POP SWAP1 JUMP JUMPDEST PUSH1 0x0 DUP1 REVERT JUMPDEST PUSH1 0x0 DUP1 REVERT JUMPDEST PUSH1 0x0 PUSH20 0xFFFFFFFFFFFFFFFFFFFFFFFFFFFFFFFFFFFFFFFF DUP3 AND SWAP1 POP SWAP2 SWAP1 POP JUMP JUMPDEST PUSH1 0x0 PUSH2 0x5E9 DUP3 PUSH2 0x5BE JUMP JUMPDEST SWAP1 POP SWAP2 SWAP1 POP JUMP JUMPDEST PUSH2 0x5F9 DUP2 PUSH2 0x5DE JUMP JUMPDEST DUP2 EQ PUSH2 0x604 JUMPI PUSH1 0x0 DUP1 REVERT JUMPDEST POP JUMP JUMPDEST PUSH1 0x0 DUP2 CALLDATALOAD SWAP1 POP PUSH2 0x616 DUP2 PUSH2 0x5F0 JUMP JUMPDEST SWAP3 SWAP2 POP POP JUMP JUMPDEST PUSH1 0x0 PUSH1 0x20 DUP3 DUP5 SUB SLT ISZERO PUSH2 0x632 JUMPI PUSH2 0x631 PUSH2 0x5B4 JUMP JUMPDEST JUMPDEST PUSH1 0x0 PUSH2 0x640 DUP5 DUP3 DUP6 ADD PUSH2 0x607 JUMP JUMPDEST SWAP2 POP POP SWAP3 SWAP2 POP POP JUMP JUMPDEST PUSH1 0x0 DUP2 SWAP1 POP SWAP2 SWAP1 POP JUMP JUMPDEST PUSH2 0x65C DUP2 PUSH2 0x649 JUMP JUMPDEST DUP3 MSTORE POP POP JUMP JUMPDEST PUSH1 0x0 PUSH1 0x20 DUP3 ADD SWAP1 POP PUSH2 0x677 PUSH1 0x0 DUP4 ADD DUP5 PUSH2 0x653 JUMP JUMPDEST SWAP3 SWAP2 POP POP JUMP JUMPDEST PUSH1 0x0 DUP2 SWAP1 POP SWAP2 SWAP1 POP JUMP JUMPDEST PUSH2 0x690 DUP2 PUSH2 0x67D JUMP JUMPDEST DUP3 MSTORE POP POP JUMP JUMPDEST PUSH1 0x0 PUSH1 0x20 DUP3 ADD SWAP1 POP PUSH2 0x6AB PUSH1 0x0 DUP4 ADD DUP5 PUSH2 0x687 JUMP JUMPDEST SWAP3 SWAP2 POP POP JUMP JUMPDEST PUSH2 0x6BA DUP2 PUSH2 0x67D JUMP JUMPDEST DUP2 EQ PUSH2 0x6C5 JUMPI PUSH1 0x0 DUP1 REVERT JUMPDEST POP JUMP JUMPDEST PUSH1 0x0 DUP2 CALLDATALOAD SWAP1 POP PUSH2 0x6D7 DUP2 PUSH2 0x6B1 JUMP JUMPDEST SWAP3 SWAP2 POP POP JUMP JUMPDEST PUSH1 0x0 PUSH1 0x20 DUP3 DUP5 SUB SLT ISZERO PUSH2 0x6F3 JUMPI PUSH2 0x6F2 PUSH2 0x5B4 JUMP JUMPDEST JUMPDEST PUSH1 0x0 PUSH2 0x701 DUP5 DUP3 DUP6 ADD PUSH2 0x6C8 JUMP JUMPDEST SWAP2 POP POP SWAP3 SWAP2 POP POP JUMP JUMPDEST PUSH2 0x713 DUP2 PUSH2 0x5DE JUMP JUMPDEST DUP3 MSTORE POP POP JUMP JUMPDEST PUSH2 0x722 DUP2 PUSH2 0x67D JUMP JUMPDEST DUP3 MSTORE POP POP JUMP JUMPDEST PUSH1 0xC0 DUP3 ADD PUSH1 0x0 DUP3 ADD MLOAD PUSH2 0x73E PUSH1 0x0 DUP6 ADD DUP3 PUSH2 0x70A JUMP JUMPDEST POP PUSH1 0x20 DUP3 ADD MLOAD PUSH2 0x751 PUSH1 0x20 DUP6 ADD DUP3 PUSH2 0x70A JUMP JUMPDEST POP PUSH1 0x40 DUP3 ADD MLOAD PUSH2 0x764 PUSH1 0x40 DUP6 ADD DUP3 PUSH2 0x719 JUMP JUMPDEST POP PUSH1 0x60 DUP3 ADD MLOAD PUSH2 0x777 PUSH1 0x60 DUP6 ADD DUP3 PUSH2 0x719 JUMP JUMPDEST POP PUSH1 0x80 DUP3 ADD MLOAD PUSH2 0x78A PUSH1 0x80 DUP6 ADD DUP3 PUSH2 0x719 JUMP JUMPDEST POP PUSH1 0xA0 DUP3 ADD MLOAD PUSH2 0x79D PUSH1 0xA0 DUP6 ADD DUP3 PUSH2 0x719 JUMP JUMPDEST POP POP POP POP JUMP JUMPDEST PUSH1 0x0 PUSH1 0xC0 DUP3 ADD SWAP1 POP PUSH2 0x7B8 PUSH1 0x0 DUP4 ADD DUP5 PUSH2 0x728 JUMP JUMPDEST SWAP3 SWAP2 POP POP JUMP JUMPDEST PUSH2 0x7C7 DUP2 PUSH2 0x5DE JUMP JUMPDEST DUP3 MSTORE POP POP JUMP JUMPDEST PUSH1 0x0 PUSH1 0xC0 DUP3 ADD SWAP1 POP PUSH2 0x7E2 PUSH1 0x0 DUP4 ADD DUP10 PUSH2 0x7BE JUMP JUMPDEST PUSH2 0x7EF PUSH1 0x20 DUP4 ADD DUP9 PUSH2 0x7BE JUMP JUMPDEST PUSH2 0x7FC PUSH1 0x40 DUP4 ADD DUP8 PUSH2 0x687 JUMP JUMPDEST PUSH2 0x809 PUSH1 0x60 DUP4 ADD DUP7 PUSH2 0x687 JUMP JUMPDEST PUSH2 0x816 PUSH1 0x80 DUP4 ADD DUP6 PUSH2 0x687 JUMP JUMPDEST PUSH2 0x823 PUSH1 0xA0 DUP4 ADD DUP5 PUSH2 0x687 JUMP JUMPDEST SWAP8 SWAP7 POP POP POP POP POP POP POP JUMP JUMPDEST PUSH1 0x0 DUP1 REVERT JUMPDEST PUSH1 0x0 DUP1 REVERT JUMPDEST PUSH1 0x0 PUSH1 0x1F NOT PUSH1 0x1F DUP4 ADD AND SWAP1 POP SWAP2 SWAP1 POP JUMP JUMPDEST PUSH32 0x4E487B7100000000000000000000000000000000000000000000000000000000 PUSH1 0x0 MSTORE PUSH1 0x41 PUSH1 0x4 MSTORE PUSH1 0x24 PUSH1 0x0 REVERT JUMPDEST PUSH2 0x881 DUP3 PUSH2 0x838 JUMP JUMPDEST DUP2 ADD DUP2 DUP2 LT PUSH8 0xFFFFFFFFFFFFFFFF DUP3 GT OR ISZERO PUSH2 0x8A0 JUMPI PUSH2 0x89F PUSH2 0x849 JUMP JUMPDEST JUMPDEST DUP1 PUSH1 0x40 MSTORE POP POP POP JUMP JUMPDEST PUSH1 0x0 PUSH2 0x8B3 PUSH2 0x5AA JUMP JUMPDEST SWAP1 POP PUSH2 0x8BF DUP3 DUP3 PUSH2 0x878 JUMP JUMPDEST SWAP2 SWAP1 POP JUMP JUMPDEST PUSH1 0x0 PUSH8 0xFFFFFFFFFFFFFFFF DUP3 GT ISZERO PUSH2 0x8DF JUMPI PUSH2 0x8DE PUSH2 0x849 JUMP JUMPDEST JUMPDEST PUSH2 0x8E8 DUP3 PUSH2 0x838 JUMP JUMPDEST SWAP1 POP PUSH1 0x20 DUP2 ADD SWAP1 POP SWAP2 SWAP1 POP JUMP JUMPDEST DUP3 DUP2 DUP4 CALLDATACOPY PUSH1 0x0 DUP4 DUP4 ADD MSTORE POP POP POP JUMP JUMPDEST PUSH1 0x0 PUSH2 0x917 PUSH2 0x912 DUP5 PUSH2 0x8C4 JUMP JUMPDEST PUSH2 0x8A9 JUMP JUMPDEST SWAP1 POP DUP3 DUP2 MSTORE PUSH1 0x20 DUP2 ADD DUP5 DUP5 DUP5 ADD GT ISZERO PUSH2 0x933 JUMPI PUSH2 0x932 PUSH2 0x833 JUMP JUMPDEST JUMPDEST PUSH2 0x93E DUP5 DUP3 DUP6 PUSH2 0x8F5 JUMP JUMPDEST POP SWAP4 SWAP3 POP POP POP JUMP JUMPDEST PUSH1 0x0 DUP3 PUSH1 0x1F DUP4 ADD SLT PUSH2 0x95B JUMPI PUSH2 0x95A PUSH2 0x82E JUMP JUMPDEST JUMPDEST DUP2 CALLDATALOAD PUSH2 0x96B DUP5 DUP3 PUSH1 0x20 DUP7 ADD PUSH2 0x904 JUMP JUMPDEST SWAP2 POP POP SWAP3 SWAP2 POP POP JUMP JUMPDEST PUSH1 0x0 DUP1 PUSH1 0x0 DUP1 PUSH1 0x0 DUP1 PUSH1 0x0 PUSH1 0xE0 DUP9 DUP11 SUB SLT ISZERO PUSH2 0x993 JUMPI PUSH2 0x992 PUSH2 0x5B4 JUMP JUMPDEST JUMPDEST PUSH1 0x0 PUSH2 0x9A1 DUP11 DUP3 DUP12 ADD PUSH2 0x607 JUMP JUMPDEST SWAP8 POP POP PUSH1 0x20 PUSH2 0x9B2 DUP11 DUP3 DUP12 ADD PUSH2 0x607 JUMP JUMPDEST SWAP7 POP POP PUSH1 0x40 PUSH2 0x9C3 DUP11 DUP3 DUP12 ADD PUSH2 0x6C8 JUMP JUMPDEST SWAP6 POP POP PUSH1 0x60 PUSH2 0x9D4 DUP11 DUP3 DUP12 ADD PUSH2 0x6C8 JUMP JUMPDEST SWAP5 POP POP PUSH1 0x80 PUSH2 0x9E5 DUP11 DUP3 DUP12 ADD PUSH2 0x6C8 JUMP JUMPDEST SWAP4 POP POP PUSH1 0xA0 DUP9 ADD CALLDATALOAD PUSH8 0xFFFFFFFFFFFFFFFF DUP2 GT ISZERO PUSH2 0xA06 JUMPI PUSH2 0xA05 PUSH2 0x5B9 JUMP JUMPDEST JUMPDEST PUSH2 0xA12 DUP11 DUP3 DUP12 ADD PUSH2 0x946 JUMP JUMPDEST SWAP3 POP POP PUSH1 0xC0 DUP9 ADD CALLDATALOAD PUSH8 0xFFFFFFFFFFFFFFFF DUP2 GT ISZERO PUSH2 0xA33 JUMPI PUSH2 0xA32 PUSH2 0x5B9 JUMP JUMPDEST JUMPDEST PUSH2 0xA3F DUP11 DUP3 DUP12 ADD PUSH2 0x946 JUMP JUMPDEST SWAP2 POP POP SWAP3 SWAP6 SWAP9 SWAP2 SWAP5 SWAP8 POP SWAP3 SWAP6 POP JUMP JUMPDEST PUSH32 0x4E487B7100000000000000000000000000000000000000000000000000000000 PUSH1 0x0 MSTORE PUSH1 0x32 PUSH1 0x4 MSTORE PUSH1 0x24 PUSH1 0x0 REVERT JUMPDEST PUSH32 0x4E487B7100000000000000000000000000000000000000000000000000000000 PUSH1 0x0 MSTORE PUSH1 0x11 PUSH1 0x4 MSTORE PUSH1 0x24 PUSH1 0x0 REVERT JUMPDEST PUSH1 0x0 PUSH2 0xAB7 DUP3 PUSH2 0x649 JUMP JUMPDEST SWAP2 POP PUSH2 0xAC2 DUP4 PUSH2 0x649 JUMP JUMPDEST SWAP3 POP DUP3 DUP3 ADD SWAP1 POP DUP3 DUP2 SLT ISZERO PUSH1 0x0 DUP4 SLT AND DUP4 DUP3 SLT PUSH1 0x0 DUP5 SLT ISZERO AND OR ISZERO PUSH2 0xAEA JUMPI PUSH2 0xAE9 PUSH2 0xA7D JUMP JUMPDEST JUMPDEST SWAP3 SWAP2 POP POP JUMP JUMPDEST PUSH1 0x0 PUSH2 0xAFB DUP3 PUSH2 0x649 JUMP JUMPDEST SWAP2 POP PUSH2 0xB06 DUP4 PUSH2 0x649 JUMP JUMPDEST SWAP3 POP DUP3 DUP3 SUB SWAP1 POP DUP2 DUP2 SLT PUSH1 0x0 DUP5 SLT AND DUP3 DUP3 SGT PUSH1 0x0 DUP6 SLT ISZERO AND OR ISZERO PUSH2 0xB2D JUMPI PUSH2 0xB2C PUSH2 0xA7D JUMP JUMPDEST JUMPDEST SWAP3 SWAP2 POP POP JUMP JUMPDEST PUSH1 0x0 DUP2 MLOAD SWAP1 POP SWAP2 SWAP1 POP JUMP JUMPDEST PUSH1 0x0 DUP3 DUP3 MSTORE PUSH1 0x20 DUP3 ADD SWAP1 POP SWAP3 SWAP2 POP POP JUMP JUMPDEST PUSH1 0x0 JUMPDEST DUP4 DUP2 LT ISZERO PUSH2 0xB6D JUMPI DUP1 DUP3 ADD MLOAD DUP2 DUP5 ADD MSTORE PUSH1 0x20 DUP2 ADD SWAP1 POP PUSH2 0xB52 JUMP JUMPDEST PUSH1 0x0 DUP5 DUP5 ADD MSTORE POP POP POP POP JUMP JUMPDEST PUSH1 0x0 PUSH2 0xB84 DUP3 PUSH2 0xB33 JUMP JUMPDEST PUSH2 0xB8E DUP2 DUP6 PUSH2 0xB3E JUMP JUMPDEST SWAP4 POP PUSH2 0xB9E DUP2 DUP6 PUSH1 0x20 DUP7 ADD PUSH2 0xB4F JUMP JUMPDEST PUSH2 0xBA7 DUP2 PUSH2 0x838 JUMP JUMPDEST DUP5 ADD SWAP2 POP POP SWAP3 SWAP2 POP POP JUMP JUMPDEST PUSH1 0x0 PUSH1 0xA0 DUP3 ADD SWAP1 POP PUSH2 0xBC7 PUSH1 0x0 DUP4 ADD DUP9 PUSH2 0x687 JUMP JUMPDEST PUSH2 0xBD4 PUSH1 0x20 DUP4 ADD DUP8 PUSH2 0x687 JUMP JUMPDEST PUSH2 0xBE1 PUSH1 0x40 DUP4 ADD DUP7 PUSH2 0x687 JUMP JUMPDEST DUP2 DUP2 SUB PUSH1 0x60 DUP4 ADD MSTORE PUSH2 0xBF3 DUP2 DUP6 PUSH2 0xB79 JUMP JUMPDEST SWAP1 POP DUP2 DUP2 SUB PUSH1 0x80 DUP4 ADD MSTORE PUSH2 0xC07 DUP2 DUP5 PUSH2 0xB79 JUMP JUMPDEST SWAP1 POP SWAP7 SWAP6 POP POP POP POP POP POP JUMP INVALID LOG2 PUSH5 0x6970667358 0x22 SLT KECCAK256 0xD3 PREVRANDAO SIGNEXTEND 0xE6 CALLDATASIZE 0xCA SWAP9 KECCAK256 0xE9 DUP9 LOG3 0x5C LOG1 0xDD COINBASE 0xE4 SLOAD SELFBALANCE SWAP11 0xD1 AND 0xCA PUSH16 0x5C276E3FFEF02448D164736F6C634300 ADDMOD EQ STOP CALLER "},"methodIdentifiers":{"balances(address)":"27e235e3","getTransaction(uint256)":"33ea3dc8","getTransactionCount()":"2e7700f0","recordTransaction(address,address,uint256,uint256,uint256,string,string)":"ae8143aa","transactions(uint256)":"9ace38c2"}}}}}